:020000000130CD
:02001B0001CA18
:1000300075A0FF7590FF7580FF758901758C3C7503
:100040008AB0D28CD2AFD2A97510147D147C237BD8
:100050000079087520037521057522047523007544
:10006000A015759001900155E52093F580314BE581
:100070009023F590E52193F580314BE59023F590A1
:10008000E52293F580314BE59023F590E52393F538
:1000900080314BE59023F590E52293F580314BE5D7
:1000A0009023F590E52393F580314BE59023F5906F
:1000B000E52293F580314BE59023F590E52393F508
:1000C00080314BE59023F5900165DD047D1401D965
:1000D000758C3C758AB0D28C32E521600415218084
:1000E000051520752109E52360071523DC2801FB90
:1000F000321522752309DC1E01FB32900166E9935B
:10010000EB701B7B017C0575200075210590016655
:1001100019E993F5A032900166E993F5A0329001B8
:100120006619E993F5A075200375210575220475FC
:100130002300E5900303F5907C237B00758C3C75D0
:100140008AB0D28CE96001327908327E1A7F1000C1
:02015000DFFDD1
:10015200DEF9223F065B4F666D7D077F6F777C3944
:0D0162005E7971401556545951654595154B
:00000001FF
